:0300000002074DA7
:0C074D00787FE4F6D8FD75810702079460
:1007D900844741226A7F844B40A000008F61510108
:1007E90001010152020202025303030303A020275D
:1007F90000000000000000000000000000000000F0
:1008090000000000000000000000000000000000DF
:100819008182008100008C040000000000000000BB
:10082900000000008C100000000000000000000023
:1008390000008C70000000000000000000000000B3
:100849008C550000000000000000000000008253E9
:02085900138802
:10043100D2AFD2ACD2A975AF011200261209251292
:10044100000E787DE2FE18E2FDEEFCEC120362E4A0
:10045100FBFAF97847120247E4FBFA7980784112F6
:10046100013E781012040C787FE2FE18E2FDEEFCEA
:10047100EC120362E4FBFAF97847120247E4FBFA53
:100481007980784112013EE4FBFA7980783E1200CE
:100491004D781412040C7881E2FE18E2FDEEFCECBA
:1004A100120362E4FBFAF97847120247E4FBFA7996
:1004B10080784112013E7BCD7ACC790C78BF120055
:1004C1004D781812040CE4784FF208F2784FE2FEEE
:1004D10008E2FFC39403EE648094805044EF25E06A
:1004E10025E02410F8E2FC08E2FD08E2FE08E2FF44
:1004F1001209357BCD7ACC79CC783D1202E46014B7
:100501004012784F08E225E025E02410F812041883
:10051100000000007850E22401F218E23400F28079
:10052100ABE47851F208F2C37852E2940318E26422
:100531008094804003020443E4784FF208F278513A
:1005410008E275F004A42455F97BFE784FE2FE0819
:10055100E2FF29F9E43EFA1203E5FD0808E275F02D
:1005610005A424622FF8EDF27850E22401F218E29A
:100571003400F208E26404700218E270C178510894
:10058100E275F005A42461F9780174FEF208E4F241
:1005910008E9F278827405F2D2997882E270FB78E8
:1005A1005308E2FF24FFF218E2FE34FFF2EF4E702F
:1005B100EE7413F2087488F27852E22401F218E220
:0605C1003400F2020528DF
:10002600759850538EBF538EFE53890F758BE875A6
:070036008DFFC2ABD28E2248
:10092500759A50538EFB75D7E875D6FF438E102206
:10000E00538E7F5389F0E4F58A758C4CC28DD28C59
:01001E0022BF
:03000B000205C724
:1005C700C0E0C0F0C083C082C0D075D000C000C0FA
:1005D70001C002C003C004C005C006C007C28D78B1
:1005E7004FE4F208F2784F08E225E025E02470F89E
:1005F700E2FC08E2FD08E2FE08E2FF7BCD7ACC7957
:100607004C783D12013E784F08E225E025E024555D
:10061700F8E2FB08E2F908E2FA08E2CBF812004D2B
:10062700C004C005C006C007784F08E2FF25E025D3
:10063700E02404F8E2FB08E2F908E2FA08E2CBF862
:10064700C000EF25E025E02410F8E2FC08E2FD08F1
:10065700E2FE08E2FFD00012004D7BCD7ACC794C48
:10066700783C12013ED003D002D001D00012004DD9
:10067700784F08E2FB25E025E02455F812040CEB3F
:1006870025E025E02470F8C000E2FC08E2FD08E25E
:10069700FE08E2FFC004C005C006C007784F08E2A5
:1006A700FF25E025E02410F8E2FB08E2F908E2FA6A
:1006B70008E2CBF8C000EF25E025E02404F8E2FCCF
:1006C70008E2FD08E2FE08E2FFD00012004D7BCDF4
:1006D7007ACC79CC783C12013EA804A905AA06ABCE
:1006E70007D007D006D005D00412004DD000120461
:1006F7000C784F08E2FB25E025E02410F8E2FC081F
:10070700E2FD08E2FE08E2FFEB25E025E02404F81D
:1007170012040C7850E22401F218E23400F208E2E5
:100727006403700218E260030205ECD007D006D01C
:1007370005D004D003D002D001D000D0D0D082D0D1
:0607470083D0F0D0E03287
:030023000208C907
:1008C900C0E0C083C082C0D075D000C000C001C0E4
:1008D90002C003309805C29885999930992DC2991B
:1008E9007882E2D3940074809480401F7801E2FBFF
:1008F90008E2FA08E2F91203E5F5997882E214F2BE
:100909007803E22401F218E23400F2D003D002D0D5
:0C09190001D000D0D0D082D083D0E032DA
:0300430002085C54
:10085C00C0E0C0D075D000C000C007E59A30E103FD
:10086C00539AFDE59A30E04C539AFE7800E2FF244F
:10087C001CF8E59BF2EF7007781CE2645570357834
:10088C0000E204F2E2640B702BF2781DE26451700A
:10089C002308E2787CF2781FE2787DF27820E27807
:1008AC007EF27821E2787FF27822E27880F2782367
:0D08BC00E27881F2D007D000D0D0D0E03239
:100046000203D0E86480F8E933E83360110460F015
:10005600ED33EC337009E8FCE9FDEAFEEBFF220420
:1000660060DED3EB9FEA9EE99DE8C2E78CF0C2F71B
:1000760095F0400CE8CCF8E9CDF9EACEFAEBCFFBE7
:1000860012039B85D0F05804700320D5B3E80470A2
:10009600075002B2D50203DA92D5EC0460F7E4CC3D
:1000A600C0E0C398F8603B94186008400DD0E0FBB0
:1000B6000203B2E4FBFAC9FC8028E830E406E4C98E
:1000C600FBE4CAFCE830E305E4C9CACBFCE8540704
:1000D6006010F8C3E913F9EA13FAEB13FBEC13FC0F
:1000E600D8F130F52FC3E49CFCEF9BFFEE9AFEEDB2
:1000F60099FDD0E0FBEF4E4D4C701222DB0302035C
:10010600D7EC2CFCEF33FFEE33FEED33FDED30E79D
:10011600EB0203B2EF2BFFEE3AFEED39FDD0E0FB2A
:1001260050130BBB00030203DAED13FDEE13FEEFD3
:0801360013FFEC13FC0203B2FD
:10013E00EC4D6011E8497017ED33EC3304600DE4BB
:10014E00FCFFFEFD22E933E8330470F80203D012FF
:10015E00039B58046009E4CC248150062850090200
:10016E0003DA2840030203D7C0E0EB4A7044B9809B
:10017E0006D0E0FB0203C6EF4E701CBD8008EBFFFD
:10018E00EAFEE9FD80EBE98DF0A4FEE5F002022720
:10019E00E9CDF9EAFEEBFFEF89F0A4FCE5F0CE899C
:1001AE00F0A42EFFE435F0CD89F0A42DFEE435F059
:1001BE008067EF4E7005BD80D780C3EF8BF0A4AC87
:1001CE00F0EE8BF0A42CFCE435F0F8EF8AF0A42CC2
:1001DE00E5F038FCE433CB8DF0A42CFCE5F03BF8D5
:1001EE00EE8AF0A42CFCE5F038F8E433CF89F0A4C5
:1001FE002CFCE5F038CF3400CE89F0A42FFFE5F0CB
:10020E003EFEE433C98DF0A42EFEE5F039CD8AF022
:10021E00A42FFFE5F03EFEE43DFD33D0E0FB50079A
:10022E000BBB000F0203DAEC2CFCEF33FFEE33FEB8
:06023E00ED33FD0203B2E6
:100244000203DAEC5D046005E8590470030203D08C
:1002540012039B580460F6EC4860F2EC7004FDFE57
:10026400FF22C860DB2481C85009C398600250068D
:100274000203D79850CAF582E9294B4A7005AB822C
:100284000203C675F0007C1A7880C3EF9BEE9AEDEA
:1002940099400DC3EF9BFFEE9AFEED99FDE842F005
:1002A400DC23ACF0D0E0FFD0E0FED0E0FDAB822058
:1002B400E7101BEB60BAEC2CFCEF33FFEE33FEEDE2
:1002C40033FD0203B2E803F830E705C0F075F0002F
:1002D400EF2FFFEE33FEED33FD40B830E7C280AAC6
:1002E40074F8CC6480CCC86480C8F58204604FC3C1
:1002F400EB9FF5F0EA9E42F0E99D42F0E89C45F060
:10030400603C501DE5825FFFE582D313CB5BCBF4E9
:100314002B5582FB50280ABA002409B90020088012
:100324001DE5825BFBE582D313CF5FCFF4C3132FAC
:100334005582FF50090EBE00050DBD00010CC3EB34
:100344009FF5F0EA9E42F0E99D42F0E89C45F0609A
:0903540007CC4820E701B3EC22BC
:10035D0075F020800E75F010800575F0087D007E1B
:10036D00007F003392D530D5031203FEEC334010DD
:10037D00EF33FFEE33FEED33FDEC33FCD5F0ED2224
:0E038D00E5F0247EA2D513CC92E7CDCEFF2260
:0D093500ED33EC3360065004EC6480FC22CE
:10039B00E9D2E7C933E833F892D5EDD2E7CD33ECA8
:0703AB0033FC5002B2D52221
:1003B200EC30E7100FBF000C0EBE00080DBD0004AC
:1003C2000BEB6014A2D5EB13FCED92E7FD2274FF58
:1003D200FCFDFEFF22E480F8A2D574FF13FC7D80B1
:0303E200E480EFC5
:10075900020431E493A3F8E493A34003F68001F281
:1007690008DFF48029E493A3F85407240CC8C333A1
:10077900C4540F4420C8834004F456800146F6DF70
:10078900E4800B01020408102040809007D9E47E20
:10079900019360BCA3FF543F30E509541FFEE49365
:1007A900A360010ECF54C025E060A840B8E493A32C
:1007B900FAE493A3F8E493A3C8C582C8CAC583CA57
:1007C900F0A3C8C582C8CAC583CADFE9DEE780BE0F
:01085B00009C
:1003E500BB010689828A83E0225002E722BBFE0216
:0903F500E32289828A83E4932249
:0E03FE00C3E49FFFE49EFEE49DFDE49CFC2210
:0C040C00ECF208EDF208EEF208EFF2222C
:10041800D083D082E493F208740193F208740293B3
:09042800F208740393F2740473EA
:00000001FF
